{
  "_format": "hh-sol-artifact-1",
  "contractName": "SafiPay",
  "sourceName": "contracts/SafiPay.sol",
  "abi": [
    {
      "inputs": [],
      "stateMutability": "nonpayable",
      "type": "constructor"
    },
    {
      "anonymous": false,
      "inputs": [
        {
          "indexed": false,
          "internalType": "uint256",
          "name": "amount",
          "type": "uint256"
        },
        {
          "indexed": false,
          "internalType": "address",
          "name": "payeer",
          "type": "address"
        },
        {
          "indexed": false,
          "internalType": "string",
          "name": "transId",
          "type": "string"
        }
      ],
      "name": "NewPayment",
      "type": "event"
    },
    {
      "inputs": [],
      "name": "owner",
      "outputs": [
        {
          "internalType": "address",
          "name": "",
          "type": "address"
        }
      ],
      "stateMutability": "view",
      "type": "function"
    },
    {
      "inputs": [
        {
          "internalType": "uint256",
          "name": "amount",
          "type": "uint256"
        },
        {
          "internalType": "string",
          "name": "transId",
          "type": "string"
        }
      ],
      "name": "pay",
      "outputs": [],
      "stateMutability": "nonpayable",
      "type": "function"
    },
    {
      "inputs": [
        {
          "internalType": "address",
          "name": "_usdtAddress",
          "type": "address"
        }
      ],
      "name": "setUSDTContractAddress",
      "outputs": [],
      "stateMutability": "nonpayable",
      "type": "function"
    },
    {
      "inputs": [],
      "name": "usdtBalance",
      "outputs": [
        {
          "internalType": "uint256",
          "name": "",
          "type": "uint256"
        }
      ],
      "stateMutability": "nonpayable",
      "type": "function"
    },
    {
      "inputs": [
        {
          "internalType": "uint256",
          "name": "amount",
          "type": "uint256"
        },
        {
          "internalType": "address",
          "name": "to",
          "type": "address"
        }
      ],
      "name": "withdrawUsdt",
      "outputs": [],
      "stateMutability": "nonpayable",
      "type": "function"
    }
  ],
  "bytecode": "0x608060405230600160006101000a81548173ffffffffffffffffffffffffffffffffffffffff021916908373ffffffffffffffffffffffffffffffffffffffff16021790555034801561005157600080fd5b50336000806101000a81548173ffffffffffffffffffffffffffffffffffffffff021916908373ffffffffffffffffffffffffffffffffffffffff160217905550610963806100a16000396000f3fe608060405234801561001057600080fd5b50600436106100575760003560e01c8063154fbbc41461005c5780633b8592f914610078578063482edb07146100945780635424145b146100b25780638da5cb5b146100ce575b600080fd5b61007660048036038101906100719190610615565b6100ec565b005b610092600480360381019061008d91906106cf565b6101ba565b005b61009c61028c565b6040516100a9919061070b565b60405180910390f35b6100cc60048036038101906100c79190610726565b610340565b005b6100d6610461565b6040516100e39190610775565b60405180910390f35b600160009054906101000a900473ffffffffffffffffffffffffffffffffffffffff1673ffffffffffffffffffffffffffffffffffffffff1663a9059cbb30846040518363ffffffff1660e01b8152600401610149929190610790565b600060405180830381600087803b15801561016357600080fd5b505af1158015610177573d6000803e3d6000fd5b505050507fcdd152cb081286fee0ea70d7daf65888b41bb6afe51eb79c34d750b0a1f591198233836040516101ae93929190610841565b60405180910390a15050565b60008054906101000a900473ffffffffffffffffffffffffffffffffffffffff1673ffffffffffffffffffffffffffffffffffffffff163373ffffffffffffffffffffffffffffffffffffffff1614610248576040517f08c379a000000000000000000000000000000000000000000000000000000000815260040161023f906108cb565b60405180910390fd5b80600160006101000a81548173ffffffffffffffffffffffffffffffffffffffff021916908373ffffffffffffffffffffffffffffffffffffffff16021790555050565b6000600160009054906101000a900473ffffffffffffffffffffffffffffffffffffffff1673ffffffffffffffffffffffffffffffffffffffff166370a08231306040518263ffffffff1660e01b81526004016102e99190610775565b602060405180830381600087803b15801561030357600080fd5b505af1158015610317573d6000803e3d6000fd5b505050506040513d601f19601f8201168201806040525081019061033b9190610900565b905090565b60008054906101000a900473ffffffffffffffffffffffffffffffffffffffff1673ffffffffffffffffffffffffffffffffffffffff163373ffffffffffffffffffffffffffffffffffffffff16146103ce576040517f08c379a00000000000000000000000000000000000000000000000000000000081526004016103c5906108cb565b60405180910390fd5b600160009054906101000a900473ffffffffffffffffffffffffffffffffffffffff1673ffffffffffffffffffffffffffffffffffffffff1663a9059cbb82846040518363ffffffff1660e01b815260040161042b929190610790565b600060405180830381600087803b15801561044557600080fd5b505af1158015610459573d6000803e3d6000fd5b505050505050565b60008054906101000a900473ffffffffffffffffffffffffffffffffffffffff1681565b6000604051905090565b600080fd5b600080fd5b6000819050919050565b6104ac81610499565b81146104b757600080fd5b50565b6000813590506104c9816104a3565b92915050565b600080fd5b600080fd5b6000601f19601f8301169050919050565b7f4e487b7100000000000000000000000000000000000000000000000000000000600052604160045260246000fd5b610522826104d9565b810181811067ffffffffffffffff82111715610541576105406104ea565b5b80604052505050565b6000610554610485565b90506105608282610519565b919050565b600067ffffffffffffffff8211156105805761057f6104ea565b5b610589826104d9565b9050602081019050919050565b82818337600083830152505050565b60006105b86105b384610565565b61054a565b9050828152602081018484840111156105d4576105d36104d4565b5b6105df848285610596565b509392505050565b600082601f8301126105fc576105fb6104cf565b5b813561060c8482602086016105a5565b91505092915050565b6000806040838503121561062c5761062b61048f565b5b600061063a858286016104ba565b925050602083013567ffffffffffffffff81111561065b5761065a610494565b5b610667858286016105e7565b9150509250929050565b600073ffffffffffffffffffffffffffffffffffffffff82169050919050565b600061069c82610671565b9050919050565b6106ac81610691565b81146106b757600080fd5b50565b6000813590506106c9816106a3565b92915050565b6000602082840312156106e5576106e461048f565b5b60006106f3848285016106ba565b91505092915050565b61070581610499565b82525050565b600060208201905061072060008301846106fc565b92915050565b6000806040838503121561073d5761073c61048f565b5b600061074b858286016104ba565b925050602061075c858286016106ba565b9150509250929050565b61076f81610691565b82525050565b600060208201905061078a6000830184610766565b92915050565b60006040820190506107a56000830185610766565b6107b260208301846106fc565b9392505050565b600081519050919050565b600082825260208201905092915050565b60005b838110156107f35780820151818401526020810190506107d8565b83811115610802576000848401525b50505050565b6000610813826107b9565b61081d81856107c4565b935061082d8185602086016107d5565b610836816104d9565b840191505092915050565b600060608201905061085660008301866106fc565b6108636020830185610766565b81810360408301526108758184610808565b9050949350505050565b7f4e6f74206f776e65720000000000000000000000000000000000000000000000600082015250565b60006108b56009836107c4565b91506108c08261087f565b602082019050919050565b600060208201905081810360008301526108e4816108a8565b9050919050565b6000815190506108fa816104a3565b92915050565b6000602082840312156109165761091561048f565b5b6000610924848285016108eb565b9150509291505056fea264697066735822122079cf0af8d441608f99341500cbb158efc2a5ec43d3d4f73e8acbf182797547ae64736f6c63430008090033",
  "linkReferences": {},
  "deployedLinkReferences": {}
}